{
  "_format": "hh-sol-artifact-1",
  "contractName": "Transactions",
  "sourceName": "contracts/Transactions.sol",
  "abi": [
    {
      "anonymous": false,
      "inputs": [
        {
          "indexed": false,
          "internalType": "address",
          "name": "from",
          "type": "address"
        },
        {
          "indexed": false,
          "internalType": "address",
          "name": "receiver",
          "type": "address"
        },
        {
          "indexed": false,
          "internalType": "uint256",
          "name": "amount",
          "type": "uint256"
        },
        {
          "indexed": false,
          "internalType": "string",
          "name": "message",
          "type": "string"
        },
        {
          "indexed": false,
          "internalType": "uint256",
          "name": "timestamp",
          "type": "uint256"
        },
        {
          "indexed": false,
          "internalType": "string",
          "name": "keyword",
          "type": "string"
        }
      ],
      "name": "Transfer",
      "type": "event"
    },
    {
      "inputs": [
        {
          "internalType": "address payable",
          "name": "receiver",
          "type": "address"
        },
        {
          "internalType": "uint256",
          "name": "amount",
          "type": "uint256"
        },
        {
          "internalType": "string",
          "name": "message",
          "type": "string"
        },
        {
          "internalType": "string",
          "name": "keyword",
          "type": "string"
        }
      ],
      "name": "addToBlockchain",
      "outputs": [],
      "stateMutability": "nonpayable",
      "type": "function"
    },
    {
      "inputs": [],
      "name": "getAllTransactions",
      "outputs": [
        {
          "components": [
            {
              "internalType": "address",
              "name": "sender",
              "type": "address"
            },
            {
              "internalType": "address",
              "name": "receiver",
              "type": "address"
            },
            {
              "internalType": "uint256",
              "name": "amount",
              "type": "uint256"
            },
            {
              "internalType": "string",
              "name": "message",
              "type": "string"
            },
            {
              "internalType": "uint256",
              "name": "timestamp",
              "type": "uint256"
            },
            {
              "internalType": "string",
              "name": "keyword",
              "type": "string"
            }
          ],
          "internalType": "struct Transactions.TransferStruct[]",
          "name": "",
          "type": "tuple[]"
        }
      ],
      "stateMutability": "view",
      "type": "function"
    },
    {
      "inputs": [],
      "name": "getTransactionCount",
      "outputs": [
        {
          "internalType": "uint256",
          "name": "",
          "type": "uint256"
        }
      ],
      "stateMutability": "view",
      "type": "function"
    },
    {
      "inputs": [],
      "name": "removeAllTransactions",
      "outputs": [],
      "stateMutability": "nonpayable",
      "type": "function"
    }
  ],
  "bytecode": "0x608060405234801561001057600080fd5b50610d2f806100206000396000f3fe608060405234801561001057600080fd5b506004361061004c5760003560e01c806327506f53146100515780632e7700f01461006f57806389c1e95b1461008d578063cc2d7ead14610097575b600080fd5b6100596100b3565b60405161006691906109db565b60405180910390f35b6100776102f6565b60405161008491906109fd565b60405180910390f35b6100956102ff565b005b6100b160048036038101906100ac9190610703565b610313565b005b60606001805480602002602001604051908101604052809291908181526020016000905b828210156102ed57838290600052602060002090600602016040518060c00160405290816000820160009054906101000a900473ffffffffffffffffffffffffffffffffffffffff1673ffffffffffffffffffffffffffffffffffffffff1673ffffffffffffffffffffffffffffffffffffffff1681526020016001820160009054906101000a900473ffffffffffffffffffffffffffffffffffffffff1673ffffffffffffffffffffffffffffffffffffffff1673ffffffffffffffffffffffffffffffffffffffff168152602001600282015481526020016003820180546101c090610bfb565b80601f01602080910402602001604051908101604052809291908181526020018280546101ec90610bfb565b80156102395780601f1061020e57610100808354040283529160200191610239565b820191906000526020600020905b81548152906001019060200180831161021c57829003601f168201915b505050505081526020016004820154815260200160058201805461025c90610bfb565b80601f016020809104026020016040519081016040528092919081815260200182805461028890610bfb565b80156102d55780601f106102aa576101008083540402835291602001916102d5565b820191906000526020600020905b8154815290600101906020018083116102b857829003601f168201915b505050505081525050815260200190600101906100d7565b50505050905090565b60008054905090565b600080556001600061031191906104d5565b565b60016000808282546103259190610adf565b9250508190555060016040518060c001604052803373ffffffffffffffffffffffffffffffffffffffff1681526020018673ffffffffffffffffffffffffffffffffffffffff16815260200185815260200184815260200142815260200183815250908060018154018082558091505060019003906000526020600020906006020160009091909190915060008201518160000160006101000a81548173ffffffffffffffffffffffffffffffffffffffff021916908373ffffffffffffffffffffffffffffffffffffffff16021790555060208201518160010160006101000a81548173ffffffffffffffffffffffffffffffffffffffff021916908373ffffffffffffffffffffffffffffffffffffffff1602179055506040820151816002015560608201518160030190805190602001906104649291906104f9565b506080820151816004015560a082015181600501908051906020019061048b9291906104f9565b5050507f416cfa4330a4565f45c2fd2dd4826a83a37443aba2ce6f79477c7355afac35fa3385858542866040516104c79695949392919061096c565b60405180910390a150505050565b50805460008255600602906000526020600020908101906104f6919061057f565b50565b82805461050590610bfb565b90600052602060002090601f016020900481019282610527576000855561056e565b82601f1061054057805160ff191683800117855561056e565b8280016001018555821561056e579182015b8281111561056d578251825591602001919060010190610552565b5b50905061057b9190610614565b5090565b5b8082111561061057600080820160006101000a81549073ffffffffffffffffffffffffffffffffffffffff02191690556001820160006101000a81549073ffffffffffffffffffffffffffffffffffffffff021916905560028201600090556003820160006105ef9190610631565b60048201600090556005820160006106079190610631565b50600601610580565b5090565b5b8082111561062d576000816000905550600101610615565b5090565b50805461063d90610bfb565b6000825580601f1061064f575061066e565b601f01602090049060005260206000209081019061066d9190610614565b5b50565b600061068461067f84610a49565b610a18565b90508281526020810184848401111561069c57600080fd5b6106a7848285610bb9565b509392505050565b6000813590506106be81610ccb565b92915050565b600082601f8301126106d557600080fd5b81356106e5848260208601610671565b91505092915050565b6000813590506106fd81610ce2565b92915050565b6000806000806080858703121561071957600080fd5b6000610727878288016106af565b9450506020610738878288016106ee565b935050604085013567ffffffffffffffff81111561075557600080fd5b610761878288016106c4565b925050606085013567ffffffffffffffff81111561077e57600080fd5b61078a878288016106c4565b91505092959194509250565b60006107a283836108be565b905092915050565b6107b381610b83565b82525050565b6107c281610b35565b82525050565b6107d181610b35565b82525050565b60006107e282610a89565b6107ec8185610aac565b9350836020820285016107fe85610a79565b8060005b8581101561083a578484038952815161081b8582610796565b945061082683610a9f565b925060208a01995050600181019050610802565b50829750879550505050505092915050565b600061085782610a94565b6108618185610abd565b9350610871818560208601610bc8565b61087a81610cba565b840191505092915050565b600061089082610a94565b61089a8185610ace565b93506108aa818560208601610bc8565b6108b381610cba565b840191505092915050565b600060c0830160008301516108d660008601826107b9565b5060208301516108e960208601826107b9565b5060408301516108fc604086018261094e565b5060608301518482036060860152610914828261084c565b9150506080830151610929608086018261094e565b5060a083015184820360a0860152610941828261084c565b9150508091505092915050565b61095781610b79565b82525050565b61096681610b79565b82525050565b600060c08201905061098160008301896107c8565b61098e60208301886107aa565b61099b604083018761095d565b81810360608301526109ad8186610885565b90506109bc608083018561095d565b81810360a08301526109ce8184610885565b9050979650505050505050565b600060208201905081810360008301526109f581846107d7565b905092915050565b6000602082019050610a12600083018461095d565b92915050565b6000604051905081810181811067ffffffffffffffff82111715610a3f57610a3e610c8b565b5b8060405250919050565b600067ffffffffffffffff821115610a6457610a63610c8b565b5b601f19601f8301169050602081019050919050565b6000819050602082019050919050565b600081519050919050565b600081519050919050565b6000602082019050919050565b600082825260208201905092915050565b600082825260208201905092915050565b600082825260208201905092915050565b6000610aea82610b79565b9150610af583610b79565b9250827fffffffffffffffffffffffffffffffffffffffffffffffffffffffffffffffff03821115610b2a57610b29610c2d565b5b828201905092915050565b6000610b4082610b59565b9050919050565b6000610b5282610b59565b9050919050565b600073ffffffffffffffffffffffffffffffffffffffff82169050919050565b6000819050919050565b6000610b8e82610b95565b9050919050565b6000610ba082610ba7565b9050919050565b6000610bb282610b59565b9050919050565b82818337600083830152505050565b60005b83811015610be6578082015181840152602081019050610bcb565b83811115610bf5576000848401525b50505050565b60006002820490506001821680610c1357607f821691505b60208210811415610c2757610c26610c5c565b5b50919050565b7f4e487b7100000000000000000000000000000000000000000000000000000000600052601160045260246000fd5b7f4e487b7100000000000000000000000000000000000000000000000000000000600052602260045260246000fd5b7f4e487b7100000000000000000000000000000000000000000000000000000000600052604160045260246000fd5b6000601f19601f8301169050919050565b610cd481610b47565b8114610cdf57600080fd5b50565b610ceb81610b79565b8114610cf657600080fd5b5056fea2646970667358221220759be8e2a79d992a06815325e95207166817ad1506412597a5bf2817ac852b8664736f6c63430008000033",
  "linkReferences": {},
  "deployedLinkReferences": {}
}